{
  "contractName": "TaskContract",
  "abi": [
    {
      "anonymous": false,
      "inputs": [
        {
          "indexed": false,
          "internalType": "address",
          "name": "recepient",
          "type": "address"
        },
        {
          "indexed": false,
          "internalType": "uint256",
          "name": "taskId",
          "type": "uint256"
        }
      ],
      "name": "taskAdded",
      "type": "event"
    },
    {
      "anonymous": false,
      "inputs": [
        {
          "indexed": false,
          "internalType": "uint256",
          "name": "taskId",
          "type": "uint256"
        }
      ],
      "name": "taskDeleted",
      "type": "event"
    },
    {
      "inputs": [
        {
          "internalType": "string",
          "name": "title",
          "type": "string"
        }
      ],
      "name": "addTask",
      "outputs": [],
      "stateMutability": "nonpayable",
      "type": "function"
    },
    {
      "inputs": [],
      "name": "getMyTasks",
      "outputs": [
        {
          "components": [
            {
              "internalType": "uint256",
              "name": "id",
              "type": "uint256"
            },
            {
              "internalType": "string",
              "name": "title",
              "type": "string"
            },
            {
              "internalType": "bool",
              "name": "isDeleted",
              "type": "bool"
            }
          ],
          "internalType": "struct TaskContract.Task[]",
          "name": "",
          "type": "tuple[]"
        }
      ],
      "stateMutability": "view",
      "type": "function"
    },
    {
      "inputs": [
        {
          "internalType": "uint256",
          "name": "id",
          "type": "uint256"
        }
      ],
      "name": "deleteTask",
      "outputs": [],
      "stateMutability": "nonpayable",
      "type": "function"
    }
  ],
  "bytecode": "0x608060405234801561000f575f80fd5b50610d768061001d5f395ff3fe608060405234801561000f575f80fd5b506004361061003f575f3560e01c8063560f319214610043578063672385621461005f5780636e13f8181461007b575b5f80fd5b61005d600480360381019061005891906105cf565b610099565b005b61007960048036038101906100749190610736565b610171565b005b610083610288565b6040516100909190610928565b60405180910390f35b3373ffffffffffffffffffffffffffffffffffffffff1660015f8381526020019081526020015f205f9054906101000a900473ffffffffffffffffffffffffffffffffffffffff1673ffffffffffffffffffffffffffffffffffffffff160361016e5760015f828154811061011157610110610948565b5b905f5260205f2090600302016002015f6101000a81548160ff0219169083151502179055507f9722408031ac4ea04bf6cfc50c3a5445b5b3e8c9586815798219f96918b1c758816040516101659190610984565b60405180910390a15b50565b5f808054905090505f60405180606001604052808381526020018481526020015f1515815250908060018154018082558091505060019003905f5260205f2090600302015f909190919091505f820151815f015560208201518160010190816101da9190610b97565b506040820151816002015f6101000a81548160ff02191690831515021790555050503360015f8381526020019081526020015f205f6101000a81548173ffffffffffffffffffffffffffffffffffffffff021916908373ffffffffffffffffffffffffffffffffffffffff1602179055507f9685d9d1ed0b94fba8637d4f21f4699275c153ec9c81be022a797896d5f7a3d8338260405161027c929190610ca5565b60405180910390a15050565b60605f808054905067ffffffffffffffff8111156102a9576102a8610612565b5b6040519080825280602002602001820160405280156102e257816020015b6102cf61056a565b8152602001906001900390816102c75790505b5090505f805b5f805490508110156104b2573373ffffffffffffffffffffffffffffffffffffffff1660015f8381526020019081526020015f205f9054906101000a900473ffffffffffffffffffffffffffffffffffffffff1673ffffffffffffffffffffffffffffffffffffffff1614801561039057505f15155f82815481106103705761036f610948565b5b905f5260205f2090600302016002015f9054906101000a900460ff161515145b1561049f575f81815481106103a8576103a7610948565b5b905f5260205f2090600302016040518060600160405290815f82015481526020016001820180546103d8906109ca565b80601f0160208091040260200160405190810160405280929190818152602001828054610404906109ca565b801561044f5780601f106104265761010080835404028352916020019161044f565b820191905f5260205f20905b81548152906001019060200180831161043257829003601f168201915b50505050508152602001600282015f9054906101000a900460ff16151515158152505083838151811061048557610484610948565b5b6020026020010181905250818061049b90610cf9565b9250505b80806104aa90610cf9565b9150506102e8565b505f8167ffffffffffffffff8111156104ce576104cd610612565b5b60405190808252806020026020018201604052801561050757816020015b6104f461056a565b8152602001906001900390816104ec5790505b5090505f5b828110156105605783818151811061052757610526610948565b5b602002602001015182828151811061054257610541610948565b5b6020026020010181905250808061055890610cf9565b91505061050c565b5080935050505090565b60405180606001604052805f8152602001606081526020015f151581525090565b5f604051905090565b5f80fd5b5f80fd5b5f819050919050565b6105ae8161059c565b81146105b8575f80fd5b50565b5f813590506105c9816105a5565b92915050565b5f602082840312156105e4576105e3610594565b5b5f6105f1848285016105bb565b91505092915050565b5f80fd5b5f80fd5b5f601f19601f8301169050919050565b7f4e487b71000000000000000000000000000000000000000000000000000000005f52604160045260245ffd5b61064882610602565b810181811067ffffffffffffffff8211171561066757610666610612565b5b80604052505050565b5f61067961058b565b9050610685828261063f565b919050565b5f67ffffffffffffffff8211156106a4576106a3610612565b5b6106ad82610602565b9050602081019050919050565b828183375f83830152505050565b5f6106da6106d58461068a565b610670565b9050828152602081018484840111156106f6576106f56105fe565b5b6107018482856106ba565b509392505050565b5f82601f83011261071d5761071c6105fa565b5b813561072d8482602086016106c8565b91505092915050565b5f6020828403121561074b5761074a610594565b5b5f82013567ffffffffffffffff81111561076857610767610598565b5b61077484828501610709565b91505092915050565b5f81519050919050565b5f82825260208201905092915050565b5f819050602082019050919050565b6107af8161059c565b82525050565b5f81519050919050565b5f82825260208201905092915050565b5f5b838110156107ec5780820151818401526020810190506107d1565b5f8484015250505050565b5f610801826107b5565b61080b81856107bf565b935061081b8185602086016107cf565b61082481610602565b840191505092915050565b5f8115159050919050565b6108438161082f565b82525050565b5f606083015f83015161085e5f8601826107a6565b506020830151848203602086015261087682826107f7565b915050604083015161088b604086018261083a565b508091505092915050565b5f6108a18383610849565b905092915050565b5f602082019050919050565b5f6108bf8261077d565b6108c98185610787565b9350836020820285016108db85610797565b805f5b8581101561091657848403895281516108f78582610896565b9450610902836108a9565b925060208a019950506001810190506108de565b50829750879550505050505092915050565b5f6020820190508181035f83015261094081846108b5565b905092915050565b7f4e487b71000000000000000000000000000000000000000000000000000000005f52603260045260245ffd5b61097e8161059c565b82525050565b5f6020820190506109975f830184610975565b92915050565b7f4e487b71000000000000000000000000000000000000000000000000000000005f52602260045260245ffd5b5f60028204905060018216806109e157607f821691505b6020821081036109f4576109f361099d565b5b50919050565b5f819050815f5260205f209050919050565b5f6020601f8301049050919050565b5f82821b905092915050565b5f60088302610a567fffffffffffffffffffffffffffffffffffffffffffffffffffffffffffffffff82610a1b565b610a608683610a1b565b95508019841693508086168417925050509392505050565b5f819050919050565b5f610a9b610a96610a918461059c565b610a78565b61059c565b9050919050565b5f819050919050565b610ab483610a81565b610ac8610ac082610aa2565b848454610a27565b825550505050565b5f90565b610adc610ad0565b610ae7818484610aab565b505050565b5b81811015610b0a57610aff5f82610ad4565b600181019050610aed565b5050565b601f821115610b4f57610b20816109fa565b610b2984610a0c565b81016020851015610b38578190505b610b4c610b4485610a0c565b830182610aec565b50505b505050565b5f82821c905092915050565b5f610b6f5f1984600802610b54565b1980831691505092915050565b5f610b878383610b60565b9150826002028217905092915050565b610ba0826107b5565b67ffffffffffffffff811115610bb957610bb8610612565b5b610bc382546109ca565b610bce828285610b0e565b5f60209050601f831160018114610bff575f8415610bed578287015190505b610bf78582610b7c565b865550610c5e565b601f198416610c0d866109fa565b5f5b82811015610c3457848901518255600182019150602085019450602081019050610c0f565b86831015610c515784890151610c4d601f891682610b60565b8355505b6001600288020188555050505b505050505050565b5f73ffffffffffffffffffffffffffffffffffffffff82169050919050565b5f610c8f82610c66565b9050919050565b610c9f81610c85565b82525050565b5f604082019050610cb85f830185610c96565b610cc56020830184610975565b9392505050565b7f4e487b71000000000000000000000000000000000000000000000000000000005f52601160045260245ffd5b5f610d038261059c565b91507fffffffffffffffffffffffffffffffffffffffffffffffffffffffffffffffff8203610d3557610d34610ccc565b5b60018201905091905056fea2646970667358221220b5990be0db42b8d0758fa24524e55430c676405db0a5414b0d1ca9933c02d61264736f6c63430008150033",
  "immutableReferences": {},
  "source": "// SPDX-License-Identifier: MIT\r\npragma solidity >=0.4.22 <0.9.0;\r\n\r\ncontract TaskContract {\r\n  event taskAdded(address recepient, uint taskId);\r\n  event taskDeleted(uint taskId);\r\n\r\n  struct Task{\r\n    uint256 id;\r\n    string title;\r\n    bool isDeleted;\r\n  }\r\n\r\n  Task[] private tasks;\r\n  mapping(uint256 => address) taskToOwner;\r\n\r\n  function addTask(string memory title) external{\r\n    uint256 id = tasks.length;\r\n    tasks.push(Task(id, title, false));\r\n    taskToOwner[id] = msg.sender;\r\n    emit taskAdded(msg.sender, id);\r\n  }\r\n\r\n  function getMyTasks() external view returns (Task[] memory){\r\n    Task[] memory temp = new Task[](tasks.length);\r\n    uint256 count = 0;\r\n    for (uint256 i = 0; i < tasks.length; i++) {\r\n      if(taskToOwner[i] == msg.sender && tasks[i].isDeleted == false){\r\n        temp[count] = tasks[i];\r\n        count++;\r\n      }\r\n    }\r\n    Task[] memory result = new Task[](count);\r\n    for (uint256 i = 0; i < count; i++) {\r\n        result[i] = temp[i];\r\n    }\r\n    \r\n    return result;\r\n  }\r\n\r\n  function deleteTask(uint256 id) external {\r\n    if(taskToOwner[id] == msg.sender){\r\n      tasks[id].isDeleted = true;\r\n      emit taskDeleted(id);\r\n    }\r\n  }\r\n\r\n}\r\n",
  "sourcePath": "C:\\Users\\Fardin\\Desktop\\todo-smart-contract\\smart-contract\\contracts\\TaskContract.sol",
  "compiler": {
    "name": "solc",
    "version": "0.8.21+commit.d9974bed.Emscripten.clang"
  },
  "schemaVersion": "3.4.16",
  "updatedAt": "2024-01-13T20:26:13.033Z",
  "devdoc": {
    "kind": "dev",
    "methods": {},
    "version": 1
  },
  "userdoc": {
    "kind": "user",
    "methods": {},
    "version": 1
  }
}